{
  "contractName": "Roles",
  "abi": [
    {
      "constant": true,
      "inputs": [
        {
          "name": "",
          "type": "address"
        }
      ],
      "name": "memberships",
      "outputs": [
        {
          "name": "",
          "type": "bytes32"
        }
      ],
      "payable": false,
      "stateMutability": "view",
      "type": "function"
    },
    {
      "constant": true,
      "inputs": [
        {
          "name": "",
          "type": "bytes32"
        }
      ],
      "name": "roles",
      "outputs": [
        {
          "name": "",
          "type": "bytes32"
        }
      ],
      "payable": false,
      "stateMutability": "view",
      "type": "function"
    },
    {
      "inputs": [],
      "payable": false,
      "stateMutability": "nonpayable",
      "type": "constructor"
    },
    {
      "constant": false,
      "inputs": [
        {
          "name": "_role",
          "type": "bytes32"
        }
      ],
      "name": "addRole",
      "outputs": [],
      "payable": false,
      "stateMutability": "nonpayable",
      "type": "function"
    },
    {
      "constant": false,
      "inputs": [
        {
          "name": "_address",
          "type": "address"
        },
        {
          "name": "_role",
          "type": "bytes32"
        }
      ],
      "name": "assignRole",
      "outputs": [],
      "payable": false,
      "stateMutability": "nonpayable",
      "type": "function"
    }
  ],
  "bytecode": "0x6060604052341561000f57600080fd5b6102628061001e6000396000f300606060405260043610610062576000357c0100000000000000000000000000000000000000000000000000000000900463ffffffff1680631d9486de14610067578063274b02a7146100ad57806373d98799146100d45780639535665114610129575b600080fd5b341561007257600080fd5b6100ab600480803573ffffffffffffffffffffffffffffffffffffffff169060200190919080356000191690602001909190505061016c565b005b34156100b857600080fd5b6100d26004808035600019169060200190919050506101e0565b005b34156100df57600080fd5b61010b600480803573ffffffffffffffffffffffffffffffffffffffff16906020019091905050610206565b60405180826000191660001916815260200191505060405180910390f35b341561013457600080fd5b61014e60048080356000191690602001909190505061021e565b60405180826000191660001916815260200191505060405180910390f35b6000806000836000191660001916815260200190815250602060ff1611151561019457600080fd5b80600160008473ffffffffffffffffffffffffffffffffffffffff1673ffffffffffffffffffffffffffffffffffffffff16815260200190815260200160002081600019169055505050565b806000808360001916600019168152602001908152602001600020816000191690555050565b60016020528060005260406000206000915090505481565b600060205280600052604060002060009150905054815600a165627a7a723058209e9570ea2e78019e0e0c78de0545f5538e4bc58ec60a80997053d3d274cbe6cf0029",
  "source": "pragma solidity ^0.4.18;\r\n\r\ncontract Roles {\r\n\r\n    // Note, I'm using a bytes32 type for the role name instead \r\n    // of string because currently you can't used dynamically sized types\r\n    // like `string` as the key for a mapping. \r\n    // That does mean that role names need to be 32 characters or less\r\n    // in length\r\n    // Im using bytes32 for the description as well so I can easily \r\n    // set the description equal to the role name if no description was \r\n    // supplied.  I didn't really need the description anyway.  It's\r\n    // Just there so I can use the mapping to store role names. \r\n    mapping(bytes32 => bytes32) public roles;\r\n\r\n    mapping(address => bytes32) public memberships;\r\n\r\n    function Roles() public {\r\n\r\n    }\r\n\r\n    function addRole(bytes32 _role) public {\r\n      // Add the role name as both the key and the value\r\n      roles[_role] = _role;\r\n    }\r\n\r\n    function assignRole(address _address, bytes32 _role) public {\r\n      // If the role's value has no length, \r\n      // assume the role doesn't exist, and abort the assignment\r\n      require(roles[_role].length > 0);\r\n\r\n      // Otherwise, assign the role to the address\r\n      memberships[_address] = _role;\r\n\r\n    }\r\n\r\n}",
  "sourcePath": "C:\\ChoreChain\\contracts\\Roles.sol",
  "compiler": {
    "name": "solc",
    "version": "0.4.19+commit.c4cbbb05.Emscripten.clang"
  },
  "schemaVersion": "2.0.0",
  "updatedAt": "2018-03-17T00:56:25.208Z"
}